{
  "_format": "hh-sol-artifact-1",
  "contractName": "NFTMint",
  "sourceName": "contracts/NFTMint.sol",
  "abi": [
    {
      "inputs": [],
      "stateMutability": "nonpayable",
      "type": "constructor"
    },
    {
      "anonymous": false,
      "inputs": [
        {
          "indexed": true,
          "internalType": "address",
          "name": "owner",
          "type": "address"
        },
        {
          "indexed": true,
          "internalType": "address",
          "name": "approved",
          "type": "address"
        },
        {
          "indexed": true,
          "internalType": "uint256",
          "name": "tokenId",
          "type": "uint256"
        }
      ],
      "name": "Approval",
      "type": "event"
    },
    {
      "anonymous": false,
      "inputs": [
        {
          "indexed": true,
          "internalType": "address",
          "name": "owner",
          "type": "address"
        },
        {
          "indexed": true,
          "internalType": "address",
          "name": "operator",
          "type": "address"
        },
        {
          "indexed": false,
          "internalType": "bool",
          "name": "approved",
          "type": "bool"
        }
      ],
      "name": "ApprovalForAll",
      "type": "event"
    },
    {
      "anonymous": false,
      "inputs": [
        {
          "indexed": true,
          "internalType": "address",
          "name": "previousOwner",
          "type": "address"
        },
        {
          "indexed": true,
          "internalType": "address",
          "name": "newOwner",
          "type": "address"
        }
      ],
      "name": "OwnershipTransferred",
      "type": "event"
    },
    {
      "anonymous": false,
      "inputs": [
        {
          "indexed": true,
          "internalType": "address",
          "name": "from",
          "type": "address"
        },
        {
          "indexed": true,
          "internalType": "address",
          "name": "to",
          "type": "address"
        },
        {
          "indexed": true,
          "internalType": "uint256",
          "name": "tokenId",
          "type": "uint256"
        }
      ],
      "name": "Transfer",
      "type": "event"
    },
    {
      "inputs": [],
      "name": "_price",
      "outputs": [
        {
          "internalType": "uint256",
          "name": "",
          "type": "uint256"
        }
      ],
      "stateMutability": "view",
      "type": "function"
    },
    {
      "inputs": [
        {
          "internalType": "address",
          "name": "to",
          "type": "address"
        },
        {
          "internalType": "uint256",
          "name": "tokenId",
          "type": "uint256"
        }
      ],
      "name": "approve",
      "outputs": [],
      "stateMutability": "nonpayable",
      "type": "function"
    },
    {
      "inputs": [
        {
          "internalType": "address",
          "name": "owner",
          "type": "address"
        }
      ],
      "name": "balanceOf",
      "outputs": [
        {
          "internalType": "uint256",
          "name": "",
          "type": "uint256"
        }
      ],
      "stateMutability": "view",
      "type": "function"
    },
    {
      "inputs": [
        {
          "internalType": "uint256",
          "name": "tokenId",
          "type": "uint256"
        }
      ],
      "name": "getApproved",
      "outputs": [
        {
          "internalType": "address",
          "name": "",
          "type": "address"
        }
      ],
      "stateMutability": "view",
      "type": "function"
    },
    {
      "inputs": [
        {
          "internalType": "address",
          "name": "owner",
          "type": "address"
        },
        {
          "internalType": "address",
          "name": "operator",
          "type": "address"
        }
      ],
      "name": "isApprovedForAll",
      "outputs": [
        {
          "internalType": "bool",
          "name": "",
          "type": "bool"
        }
      ],
      "stateMutability": "view",
      "type": "function"
    },
    {
      "inputs": [
        {
          "internalType": "string",
          "name": "nftdata",
          "type": "string"
        },
        {
          "internalType": "address payable",
          "name": "_to",
          "type": "address"
        }
      ],
      "name": "makeAnEpicNFT",
      "outputs": [],
      "stateMutability": "payable",
      "type": "function"
    },
    {
      "inputs": [],
      "name": "name",
      "outputs": [
        {
          "internalType": "string",
          "name": "",
          "type": "string"
        }
      ],
      "stateMutability": "view",
      "type": "function"
    },
    {
      "inputs": [],
      "name": "owner",
      "outputs": [
        {
          "internalType": "address",
          "name": "",
          "type": "address"
        }
      ],
      "stateMutability": "view",
      "type": "function"
    },
    {
      "inputs": [
        {
          "internalType": "uint256",
          "name": "tokenId",
          "type": "uint256"
        }
      ],
      "name": "ownerOf",
      "outputs": [
        {
          "internalType": "address",
          "name": "",
          "type": "address"
        }
      ],
      "stateMutability": "view",
      "type": "function"
    },
    {
      "inputs": [],
      "name": "renounceOwnership",
      "outputs": [],
      "stateMutability": "nonpayable",
      "type": "function"
    },
    {
      "inputs": [
        {
          "internalType": "address",
          "name": "from",
          "type": "address"
        },
        {
          "internalType": "address",
          "name": "to",
          "type": "address"
        },
        {
          "internalType": "uint256",
          "name": "tokenId",
          "type": "uint256"
        }
      ],
      "name": "safeTransferFrom",
      "outputs": [],
      "stateMutability": "nonpayable",
      "type": "function"
    },
    {
      "inputs": [
        {
          "internalType": "address",
          "name": "from",
          "type": "address"
        },
        {
          "internalType": "address",
          "name": "to",
          "type": "address"
        },
        {
          "internalType": "uint256",
          "name": "tokenId",
          "type": "uint256"
        },
        {
          "internalType": "bytes",
          "name": "data",
          "type": "bytes"
        }
      ],
      "name": "safeTransferFrom",
      "outputs": [],
      "stateMutability": "nonpayable",
      "type": "function"
    },
    {
      "inputs": [
        {
          "internalType": "address",
          "name": "operator",
          "type": "address"
        },
        {
          "internalType": "bool",
          "name": "approved",
          "type": "bool"
        }
      ],
      "name": "setApprovalForAll",
      "outputs": [],
      "stateMutability": "nonpayable",
      "type": "function"
    },
    {
      "inputs": [
        {
          "internalType": "uint256",
          "name": "price",
          "type": "uint256"
        }
      ],
      "name": "setPrice",
      "outputs": [],
      "stateMutability": "payable",
      "type": "function"
    },
    {
      "inputs": [
        {
          "internalType": "bytes4",
          "name": "interfaceId",
          "type": "bytes4"
        }
      ],
      "name": "supportsInterface",
      "outputs": [
        {
          "internalType": "bool",
          "name": "",
          "type": "bool"
        }
      ],
      "stateMutability": "view",
      "type": "function"
    },
    {
      "inputs": [],
      "name": "symbol",
      "outputs": [
        {
          "internalType": "string",
          "name": "",
          "type": "string"
        }
      ],
      "stateMutability": "view",
      "type": "function"
    },
    {
      "inputs": [
        {
          "internalType": "uint256",
          "name": "tokenId",
          "type": "uint256"
        }
      ],
      "name": "tokenURI",
      "outputs": [
        {
          "internalType": "string",
          "name": "",
          "type": "string"
        }
      ],
      "stateMutability": "view",
      "type": "function"
    },
    {
      "inputs": [],
      "name": "totalSupply",
      "outputs": [
        {
          "internalType": "uint256",
          "name": "",
          "type": "uint256"
        }
      ],
      "stateMutability": "view",
      "type": "function"
    },
    {
      "inputs": [
        {
          "internalType": "address",
          "name": "from",
          "type": "address"
        },
        {
          "internalType": "address",
          "name": "to",
          "type": "address"
        },
        {
          "internalType": "uint256",
          "name": "tokenId",
          "type": "uint256"
        }
      ],
      "name": "transferFrom",
      "outputs": [],
      "stateMutability": "nonpayable",
      "type": "function"
    },
    {
      "inputs": [
        {
          "internalType": "address",
          "name": "newOwner",
          "type": "address"
        }
      ],
      "name": "transferOwnership",
      "outputs": [],
      "stateMutability": "nonpayable",
      "type": "function"
    }
  ],
  "bytecode": "0x608060405260006009553480156200001657600080fd5b506040518060400160405280600f81526020017f4e46544d696e74436f6e747261637400000000000000000000000000000000008152506040518060400160405280600381526020017f4e46540000000000000000000000000000000000000000000000000000000000815250620000a362000097620000dd60201b60201c565b620000e560201b60201c565b8160019080519060200190620000bb929190620001a9565b508060029080519060200190620000d4929190620001a9565b505050620002be565b600033905090565b60008060009054906101000a900473ffffffffffffffffffffffffffffffffffffffff169050816000806101000a81548173ffffffffffffffffffffffffffffffffffffffff021916908373ffffffffffffffffffffffffffffffffffffffff1602179055508173ffffffffffffffffffffffffffffffffffffffff168173ffffffffffffffffffffffffffffffffffffffff167f8be0079c531659141344cd1fd0a4f28419497f9722a3daafe3b4186f6b6457e060405160405180910390a35050565b828054620001b79062000288565b90600052602060002090601f016020900481019282620001db576000855562000227565b82601f10620001f657805160ff191683800117855562000227565b8280016001018555821562000227579182015b828111156200022657825182559160200191906001019062000209565b5b5090506200023691906200023a565b5090565b5b80821115620002555760008160009055506001016200023b565b5090565b7f4e487b7100000000000000000000000000000000000000000000000000000000600052602260045260246000fd5b60006002820490506001821680620002a157607f821691505b60208210811415620002b857620002b762000259565b5b50919050565b61306480620002ce6000396000f3fe60806040526004361061011f5760003560e01c8063715018a6116100a0578063a22cb46511610064578063a22cb465146103b9578063b88d4fde146103e2578063c87b56dd1461040b578063e985e9c514610448578063f2fde38b146104855761011f565b8063715018a6146103145780638da5cb5b1461032b57806391b7f5ed1461035657806395d89b4114610372578063a001faf31461039d5761011f565b8063235b6ea1116100e7578063235b6ea11461021d57806323b872dd1461024857806342842e0e146102715780636352211e1461029a57806370a08231146102d75761011f565b806301ffc9a71461012457806306fdde0314610161578063081812fc1461018c578063095ea7b3146101c957806318160ddd146101f2575b600080fd5b34801561013057600080fd5b5061014b60048036038101906101469190611dda565b6104ae565b6040516101589190611e22565b60405180910390f35b34801561016d57600080fd5b50610176610590565b6040516101839190611ed6565b60405180910390f35b34801561019857600080fd5b506101b360048036038101906101ae9190611f2e565b610622565b6040516101c09190611f9c565b60405180910390f35b3480156101d557600080fd5b506101f060048036038101906101eb9190611fe3565b610668565b005b3480156101fe57600080fd5b50610207610780565b6040516102149190612032565b60405180910390f35b34801561022957600080fd5b50610232610791565b60405161023f9190612032565b60405180910390f35b34801561025457600080fd5b5061026f600480360381019061026a919061204d565b610797565b005b34801561027d57600080fd5b506102986004803603810190610293919061204d565b6107f7565b005b3480156102a657600080fd5b506102c160048036038101906102bc9190611f2e565b610817565b6040516102ce9190611f9c565b60405180910390f35b3480156102e357600080fd5b506102fe60048036038101906102f991906120a0565b6108c9565b60405161030b9190612032565b60405180910390f35b34801561032057600080fd5b50610329610981565b005b34801561033757600080fd5b50610340610995565b60405161034d9190611f9c565b60405180910390f35b610370600480360381019061036b9190611f2e565b6109be565b005b34801561037e57600080fd5b506103876109d0565b6040516103949190611ed6565b60405180910390f35b6103b760048036038101906103b29190612240565b610a62565b005b3480156103c557600080fd5b506103e060048036038101906103db91906122c8565b610bb0565b005b3480156103ee57600080fd5b50610409600480360381019061040491906123a9565b610bc6565b005b34801561041757600080fd5b50610432600480360381019061042d9190611f2e565b610c28565b60405161043f9190611ed6565b60405180910390f35b34801561045457600080fd5b5061046f600480360381019061046a919061242c565b610d3b565b60405161047c9190611e22565b60405180910390f35b34801561049157600080fd5b506104ac60048036038101906104a791906120a0565b610dcf565b005b60007f80ac58cd000000000000000000000000000000000000000000000000000000007bffffffffffffffffffffffffffffffffffffffffffffffffffffffff1916827bffffffffffffffffffffffffffffffffffffffffffffffffffffffff1916148061057957507f5b5e139f000000000000000000000000000000000000000000000000000000007bffffffffffffffffffffffffffffffffffffffffffffffffffffffff1916827bffffffffffffffffffffffffffffffffffffffffffffffffffffffff1916145b80610589575061058882610e53565b5b9050919050565b60606001805461059f9061249b565b80601f01602080910402602001604051908101604052809291908181526020018280546105cb9061249b565b80156106185780601f106105ed57610100808354040283529160200191610618565b820191906000526020600020905b8154815290600101906020018083116105fb57829003601f168201915b5050505050905090565b600061062d82610ebd565b6005600083815260200190815260200160002060009054906101000a900473ffffffffffffffffffffffffffffffffffffffff169050919050565b600061067382610817565b90508073ffffffffffffffffffffffffffffffffffffffff168373ffffffffffffffffffffffffffffffffffffffff1614156106e4576040517f08c379a00000000000000000000000000000000000000000000000000000000081526004016106db9061253f565b60405180910390fd5b8073ffffffffffffffffffffffffffffffffffffffff16610703610f08565b73ffffffffffffffffffffffffffffffffffffffff16148061073257506107318161072c610f08565b610d3b565b5b610771576040517f08c379a0000000000000000000000000000000000000000000000000000000008152600401610768906125d1565b60405180910390fd5b61077b8383610f10565b505050565b600061078c6008610fc9565b905090565b60095481565b6107a86107a2610f08565b82610fd7565b6107e7576040517f08c379a00000000000000000000000000000000000000000000000000000000081526004016107de90612663565b60405180910390fd5b6107f283838361106c565b505050565b61081283838360405180602001604052806000815250610bc6565b505050565b6000806003600084815260200190815260200160002060009054906101000a900473ffffffffffffffffffffffffffffffffffffffff169050600073ffffffffffffffffffffffffffffffffffffffff168173ffffffffffffffffffffffffffffffffffffffff1614156108c0576040517f08c379a00000000000000000000000000000000000000000000000000000000081526004016108b7906126cf565b60405180910390fd5b80915050919050565b60008073ffffffffffffffffffffffffffffffffffffffff168273ffffffffffffffffffffffffffffffffffffffff16141561093a576040517f08c379a000000000000000000000000000000000000000000000000000000000815260040161093190612761565b60405180910390fd5b600460008373ffffffffffffffffffffffffffffffffffffffff1673ffffffffffffffffffffffffffffffffffffffff168152602001908152602001600020549050919050565b6109896112d3565b6109936000611351565b565b60008060009054906101000a900473ffffffffffffffffffffffffffffffffffffffff16905090565b6109c66112d3565b8060098190555050565b6060600280546109df9061249b565b80601f0160208091040260200160405190810160405280929190818152602001828054610a0b9061249b565b8015610a585780601f10610a2d57610100808354040283529160200191610a58565b820191906000526020600020905b815481529060010190602001808311610a3b57829003601f168201915b5050505050905090565b3273ffffffffffffffffffffffffffffffffffffffff163373ffffffffffffffffffffffffffffffffffffffff1614610ad0576040517f08c379a0000000000000000000000000000000000000000000000000000000008152600401610ac7906127cd565b60405180910390fd5b60008173ffffffffffffffffffffffffffffffffffffffff16600954604051610af89061281e565b60006040518083038185875af1925050503d8060008114610b35576040519150601f19603f3d011682016040523d82523d6000602084013e610b3a565b606091505b5050905080610b7e576040517f08c379a0000000000000000000000000000000000000000000000000000000008152600401610b759061287f565b60405180910390fd5b610b886008611415565b6000610b946008610fc9565b9050610ba0338261142b565b610baa8185611449565b50505050565b610bc2610bbb610f08565b83836114bd565b5050565b610bd7610bd1610f08565b83610fd7565b610c16576040517f08c379a0000000000000000000000000000000000000000000000000000000008152600401610c0d90612663565b60405180910390fd5b610c228484848461162a565b50505050565b6060610c3382610ebd565b6000600760008481526020019081526020016000208054610c539061249b565b80601f0160208091040260200160405190810160405280929190818152602001828054610c7f9061249b565b8015610ccc5780601f10610ca157610100808354040283529160200191610ccc565b820191906000526020600020905b815481529060010190602001808311610caf57829003601f168201915b505050505090506000610cdd611686565b9050600081511415610cf3578192505050610d36565b600082511115610d28578082604051602001610d109291906128db565b60405160208183030381529060405292505050610d36565b610d318461169d565b925050505b919050565b6000600660008473ffffffffffffffffffffffffffffffffffffffff1673ffffffffffffffffffffffffffffffffffffffff16815260200190815260200160002060008373ffffffffffffffffffffffffffffffffffffffff1673ffffffffffffffffffffffffffffffffffffffff16815260200190815260200160002060009054906101000a900460ff16905092915050565b610dd76112d3565b600073ffffffffffffffffffffffffffffffffffffffff168173ffffffffffffffffffffffffffffffffffffffff161415610e47576040517f08c379a0000000000000000000000000000000000000000000000000000000008152600401610e3e90612971565b60405180910390fd5b610e5081611351565b50565b60007f01ffc9a7000000000000000000000000000000000000000000000000000000007bffffffffffffffffffffffffffffffffffffffffffffffffffffffff1916827bffffffffffffffffffffffffffffffffffffffffffffffffffffffff1916149050919050565b610ec681611705565b610f05576040517f08c379a0000000000000000000000000000000000000000000000000000000008152600401610efc906126cf565b60405180910390fd5b50565b600033905090565b816005600083815260200190815260200160002060006101000a81548173ffffffffffffffffffffffffffffffffffffffff021916908373ffffffffffffffffffffffffffffffffffffffff160217905550808273ffffffffffffffffffffffffffffffffffffffff16610f8383610817565b73ffffffffffffffffffffffffffffffffffffffff167f8c5be1e5ebec7d5bd14f71427d1e84f3dd0314c0f7b2291e5b200ac8c7c3b92560405160405180910390a45050565b600081600001549050919050565b600080610fe383610817565b90508073ffffffffffffffffffffffffffffffffffffffff168473ffffffffffffffffffffffffffffffffffffffff16148061102557506110248185610d3b565b5b8061106357508373ffffffffffffffffffffffffffffffffffffffff1661104b84610622565b73ffffffffffffffffffffffffffffffffffffffff16145b91505092915050565b8273ffffffffffffffffffffffffffffffffffffffff1661108c82610817565b73ffffffffffffffffffffffffffffffffffffffff16146110e2576040517f08c379a00000000000000000000000000000000000000000000000000000000081526004016110d990612a03565b60405180910390fd5b600073ffffffffffffffffffffffffffffffffffffffff168273ffffffffffffffffffffffffffffffffffffffff161415611152576040517f08c379a000000000000000000000000000000000000000000000000000000000815260040161114990612a95565b60405180910390fd5b61115d838383611771565b611168600082610f10565b6001600460008573ffffffffffffffffffffffffffffffffffffffff1673ffffffffffffffffffffffffffffffffffffffff16815260200190815260200160002060008282546111b89190612ae4565b925050819055506001600460008473ffffffffffffffffffffffffffffffffffffffff1673ffffffffffffffffffffffffffffffffffffffff168152602001908152602001600020600082825461120f9190612b18565b92505081905550816003600083815260200190815260200160002060006101000a81548173ffffffffffffffffffffffffffffffffffffffff021916908373ffffffffffffffffffffffffffffffffffffffff160217905550808273ffffffffffffffffffffffffffffffffffffffff168473ffffffffffffffffffffffffffffffffffffffff167fddf252ad1be2c89b69c2b068fc378daa952ba7f163c4a11628f55a4df523b3ef60405160405180910390a46112ce838383611776565b505050565b6112db610f08565b73ffffffffffffffffffffffffffffffffffffffff166112f9610995565b73ffffffffffffffffffffffffffffffffffffffff161461134f576040517f08c379a000000000000000000000000000000000000000000000000000000000815260040161134690612bba565b60405180910390fd5b565b60008060009054906101000a900473ffffffffffffffffffffffffffffffffffffffff169050816000806101000a81548173ffffffffffffffffffffffffffffffffffffffff021916908373ffffffffffffffffffffffffffffffffffffffff1602179055508173ffffffffffffffffffffffffffffffffffffffff168173ffffffffffffffffffffffffffffffffffffffff167f8be0079c531659141344cd1fd0a4f28419497f9722a3daafe3b4186f6b6457e060405160405180910390a35050565b6001816000016000828254019250508190555050565b61144582826040518060200160405280600081525061177b565b5050565b61145282611705565b611491576040517f08c379a000000000000000000000000000000000000000000000000000000000815260040161148890612c4c565b60405180910390fd5b806007600084815260200190815260200160002090805190602001906114b8929190611ccb565b505050565b8173ffffffffffffffffffffffffffffffffffffffff168373ffffffffffffffffffffffffffffffffffffffff16141561152c576040517f08c379a000000000000000000000000000000000000000000000000000000000815260040161152390612cb8565b60405180910390fd5b80600660008573ffffffffffffffffffffffffffffffffffffffff1673ffffffffffffffffffffffffffffffffffffffff16815260200190815260200160002060008473ffffffffffffffffffffffffffffffffffffffff1673ffffffffffffffffffffffffffffffffffffffff16815260200190815260200160002060006101000a81548160ff0219169083151502179055508173ffffffffffffffffffffffffffffffffffffffff168373ffffffffffffffffffffffffffffffffffffffff167f17307eab39ab6107e8899845ad3d59bd9653f200f220920489ca2b5937696c318360405161161d9190611e22565b60405180910390a3505050565b61163584848461106c565b611641848484846117d6565b611680576040517f08c379a000000000000000000000000000000000000000000000000000000000815260040161167790612d4a565b60405180910390fd5b50505050565b606060405180602001604052806000815250905090565b60606116a882610ebd565b60006116b2611686565b905060008151116116d257604051806020016040528060008152506116fd565b806116dc8461196d565b6040516020016116ed9291906128db565b6040516020818303038152906040525b915050919050565b60008073ffffffffffffffffffffffffffffffffffffffff166003600084815260200190815260200160002060009054906101000a900473ffffffffffffffffffffffffffffffffffffffff1673ffffffffffffffffffffffffffffffffffffffff1614159050919050565b505050565b505050565b6117858383611ace565b61179260008484846117d6565b6117d1576040517f08c379a00000000000000000000000000000000000000000000000000000000081526004016117c890612d4a565b60405180910390fd5b505050565b60006117f78473ffffffffffffffffffffffffffffffffffffffff16611ca8565b15611960578373ffffffffffffffffffffffffffffffffffffffff1663150b7a02611820610f08565b8786866040518563ffffffff1660e01b81526004016118429493929190612dbf565b602060405180830381600087803b15801561185c57600080fd5b505af192505050801561188d57506040513d601f19601f8201168201806040525081019061188a9190612e20565b60015b611910573d80600081146118bd576040519150601f19603f3d011682016040523d82523d6000602084013e6118c2565b606091505b50600081511415611908576040517f08c379a00000000000000000000000000000000000000000000000000000000081526004016118ff90612d4a565b60405180910390fd5b805181602001fd5b63150b7a0260e01b7bffffffffffffffffffffffffffffffffffffffffffffffffffffffff1916817bffffffffffffffffffffffffffffffffffffffffffffffffffffffff191614915050611965565b600190505b949350505050565b606060008214156119b5576040518060400160405280600181526020017f30000000000000000000000000000000000000000000000000000000000000008152509050611ac9565b600082905060005b600082146119e75780806119d090612e4d565b915050600a826119e09190612ec5565b91506119bd565b60008167ffffffffffffffff811115611a0357611a026120d7565b5b6040519080825280601f01601f191660200182016040528015611a355781602001600182028036833780820191505090505b5090505b60008514611ac257600182611a4e9190612ae4565b9150600a85611a5d9190612ef6565b6030611a699190612b18565b60f81b818381518110611a7f57611a7e612f27565b5b60200101907effffffffffffffffffffffffffffffffffffffffffffffffffffffffffffff1916908160001a905350600a85611abb9190612ec5565b9450611a39565b8093505050505b919050565b600073ffffffffffffffffffffffffffffffffffffffff168273ffffffffffffffffffffffffffffffffffffffff161415611b3e576040517f08c379a0000000000000000000000000000000000000000000000000000000008152600401611b3590612fa2565b60405180910390fd5b611b4781611705565b15611b87576040517f08c379a0000000000000000000000000000000000000000000000000000000008152600401611b7e9061300e565b60405180910390fd5b611b9360008383611771565b6001600460008473ffffffffffffffffffffffffffffffffffffffff1673ffffffffffffffffffffffffffffffffffffffff1681526020019081526020016000206000828254611be39190612b18565b92505081905550816003600083815260200190815260200160002060006101000a81548173ffffffffffffffffffffffffffffffffffffffff021916908373ffffffffffffffffffffffffffffffffffffffff160217905550808273ffffffffffffffffffffffffffffffffffffffff16600073ffffffffffffffffffffffffffffffffffffffff167fddf252ad1be2c89b69c2b068fc378daa952ba7f163c4a11628f55a4df523b3ef60405160405180910390a4611ca460008383611776565b5050565b6000808273ffffffffffffffffffffffffffffffffffffffff163b119050919050565b828054611cd79061249b565b90600052602060002090601f016020900481019282611cf95760008555611d40565b82601f10611d1257805160ff1916838001178555611d40565b82800160010185558215611d40579182015b82811115611d3f578251825591602001919060010190611d24565b5b509050611d4d9190611d51565b5090565b5b80821115611d6a576000816000905550600101611d52565b5090565b6000604051905090565b600080fd5b600080fd5b60007fffffffff0000000000000000000000000000000000000000000000000000000082169050919050565b611db781611d82565b8114611dc257600080fd5b50565b600081359050611dd481611dae565b92915050565b600060208284031215611df057611def611d78565b5b6000611dfe84828501611dc5565b91505092915050565b60008115159050919050565b611e1c81611e07565b82525050565b6000602082019050611e376000830184611e13565b92915050565b600081519050919050565b600082825260208201905092915050565b60005b83811015611e77578082015181840152602081019050611e5c565b83811115611e86576000848401525b50505050565b6000601f19601f8301169050919050565b6000611ea882611e3d565b611eb28185611e48565b9350611ec2818560208601611e59565b611ecb81611e8c565b840191505092915050565b60006020820190508181036000830152611ef08184611e9d565b905092915050565b6000819050919050565b611f0b81611ef8565b8114611f1657600080fd5b50565b600081359050611f2881611f02565b92915050565b600060208284031215611f4457611f43611d78565b5b6000611f5284828501611f19565b91505092915050565b600073ffffffffffffffffffffffffffffffffffffffff82169050919050565b6000611f8682611f5b565b9050919050565b611f9681611f7b565b82525050565b6000602082019050611fb16000830184611f8d565b92915050565b611fc081611f7b565b8114611fcb57600080fd5b50565b600081359050611fdd81611fb7565b92915050565b60008060408385031215611ffa57611ff9611d78565b5b600061200885828601611fce565b925050602061201985828601611f19565b9150509250929050565b61202c81611ef8565b82525050565b60006020820190506120476000830184612023565b92915050565b60008060006060848603121561206657612065611d78565b5b600061207486828701611fce565b935050602061208586828701611fce565b925050604061209686828701611f19565b9150509250925092565b6000602082840312156120b6576120b5611d78565b5b60006120c484828501611fce565b91505092915050565b600080fd5b600080fd5b7f4e487b7100000000000000000000000000000000000000000000000000000000600052604160045260246000fd5b61210f82611e8c565b810181811067ffffffffffffffff8211171561212e5761212d6120d7565b5b80604052505050565b6000612141611d6e565b905061214d8282612106565b919050565b600067ffffffffffffffff82111561216d5761216c6120d7565b5b61217682611e8c565b9050602081019050919050565b82818337600083830152505050565b60006121a56121a084612152565b612137565b9050828152602081018484840111156121c1576121c06120d2565b5b6121cc848285612183565b509392505050565b600082601f8301126121e9576121e86120cd565b5b81356121f9848260208601612192565b91505092915050565b600061220d82611f5b565b9050919050565b61221d81612202565b811461222857600080fd5b50565b60008135905061223a81612214565b92915050565b6000806040838503121561225757612256611d78565b5b600083013567ffffffffffffffff81111561227557612274611d7d565b5b612281858286016121d4565b92505060206122928582860161222b565b9150509250929050565b6122a581611e07565b81146122b057600080fd5b50565b6000813590506122c28161229c565b92915050565b600080604083850312156122df576122de611d78565b5b60006122ed85828601611fce565b92505060206122fe858286016122b3565b9150509250929050565b600067ffffffffffffffff821115612323576123226120d7565b5b61232c82611e8c565b9050602081019050919050565b600061234c61234784612308565b612137565b905082815260208101848484011115612368576123676120d2565b5b612373848285612183565b509392505050565b600082601f8301126123905761238f6120cd565b5b81356123a0848260208601612339565b91505092915050565b600080600080608085870312156123c3576123c2611d78565b5b60006123d187828801611fce565b94505060206123e287828801611fce565b93505060406123f387828801611f19565b925050606085013567ffffffffffffffff81111561241457612413611d7d565b5b6124208782880161237b565b91505092959194509250565b6000806040838503121561244357612442611d78565b5b600061245185828601611fce565b925050602061246285828601611fce565b9150509250929050565b7f4e487b7100000000000000000000000000000000000000000000000000000000600052602260045260246000fd5b600060028204905060018216806124b357607f821691505b602082108114156124c7576124c661246c565b5b50919050565b7f4552433732313a20617070726f76616c20746f2063757272656e74206f776e6560008201527f7200000000000000000000000000000000000000000000000000000000000000602082015250565b6000612529602183611e48565b9150612534826124cd565b604082019050919050565b600060208201905081810360008301526125588161251c565b9050919050565b7f4552433732313a20617070726f76652063616c6c6572206973206e6f7420746f60008201527f6b656e206f776e6572206e6f7220617070726f76656420666f7220616c6c0000602082015250565b60006125bb603e83611e48565b91506125c68261255f565b604082019050919050565b600060208201905081810360008301526125ea816125ae565b9050919050565b7f4552433732313a2063616c6c6572206973206e6f7420746f6b656e206f776e6560008201527f72206e6f7220617070726f766564000000000000000000000000000000000000602082015250565b600061264d602e83611e48565b9150612658826125f1565b604082019050919050565b6000602082019050818103600083015261267c81612640565b9050919050565b7f4552433732313a20696e76616c696420746f6b656e2049440000000000000000600082015250565b60006126b9601883611e48565b91506126c482612683565b602082019050919050565b600060208201905081810360008301526126e8816126ac565b9050919050565b7f4552433732313a2061646472657373207a65726f206973206e6f74206120766160008201527f6c6964206f776e65720000000000000000000000000000000000000000000000602082015250565b600061274b602983611e48565b9150612756826126ef565b604082019050919050565b6000602082019050818103600083015261277a8161273e565b9050919050565b7f4e6f7420616c6c6f776564206f726967696e0000000000000000000000000000600082015250565b60006127b7601283611e48565b91506127c282612781565b602082019050919050565b600060208201905081810360008301526127e6816127aa565b9050919050565b600081905092915050565b50565b60006128086000836127ed565b9150612813826127f8565b600082019050919050565b6000612829826127fb565b9150819050919050565b7f4661696c656420746f2073656e64204554480000000000000000000000000000600082015250565b6000612869601283611e48565b915061287482612833565b602082019050919050565b600060208201905081810360008301526128988161285c565b9050919050565b600081905092915050565b60006128b582611e3d565b6128bf818561289f565b93506128cf818560208601611e59565b80840191505092915050565b60006128e782856128aa565b91506128f382846128aa565b91508190509392505050565b7f4f776e61626c653a206e6577206f776e657220697320746865207a65726f206160008201527f6464726573730000000000000000000000000000000000000000000000000000602082015250565b600061295b602683611e48565b9150612966826128ff565b604082019050919050565b6000602082019050818103600083015261298a8161294e565b9050919050565b7f4552433732313a207472616e736665722066726f6d20696e636f72726563742060008201527f6f776e6572000000000000000000000000000000000000000000000000000000602082015250565b60006129ed602583611e48565b91506129f882612991565b604082019050919050565b60006020820190508181036000830152612a1c816129e0565b9050919050565b7f4552433732313a207472616e7366657220746f20746865207a65726f2061646460008201527f7265737300000000000000000000000000000000000000000000000000000000602082015250565b6000612a7f602483611e48565b9150612a8a82612a23565b604082019050919050565b60006020820190508181036000830152612aae81612a72565b9050919050565b7f4e487b7100000000000000000000000000000000000000000000000000000000600052601160045260246000fd5b6000612aef82611ef8565b9150612afa83611ef8565b925082821015612b0d57612b0c612ab5565b5b828203905092915050565b6000612b2382611ef8565b9150612b2e83611ef8565b9250827fffffffffffffffffffffffffffffffffffffffffffffffffffffffffffffffff03821115612b6357612b62612ab5565b5b828201905092915050565b7f4f776e61626c653a2063616c6c6572206973206e6f7420746865206f776e6572600082015250565b6000612ba4602083611e48565b9150612baf82612b6e565b602082019050919050565b60006020820190508181036000830152612bd381612b97565b9050919050565b7f45524337323155524953746f726167653a2055524920736574206f66206e6f6e60008201527f6578697374656e7420746f6b656e000000000000000000000000000000000000602082015250565b6000612c36602e83611e48565b9150612c4182612bda565b604082019050919050565b60006020820190508181036000830152612c6581612c29565b9050919050565b7f4552433732313a20617070726f766520746f2063616c6c657200000000000000600082015250565b6000612ca2601983611e48565b9150612cad82612c6c565b602082019050919050565b60006020820190508181036000830152612cd181612c95565b9050919050565b7f4552433732313a207472616e7366657220746f206e6f6e20455243373231526560008201527f63656976657220696d706c656d656e7465720000000000000000000000000000602082015250565b6000612d34603283611e48565b9150612d3f82612cd8565b604082019050919050565b60006020820190508181036000830152612d6381612d27565b9050919050565b600081519050919050565b600082825260208201905092915050565b6000612d9182612d6a565b612d9b8185612d75565b9350612dab818560208601611e59565b612db481611e8c565b840191505092915050565b6000608082019050612dd46000830187611f8d565b612de16020830186611f8d565b612dee6040830185612023565b8181036060830152612e008184612d86565b905095945050505050565b600081519050612e1a81611dae565b92915050565b600060208284031215612e3657612e35611d78565b5b6000612e4484828501612e0b565b91505092915050565b6000612e5882611ef8565b91507fffffffffffffffffffffffffffffffffffffffffffffffffffffffffffffffff821415612e8b57612e8a612ab5565b5b600182019050919050565b7f4e487b7100000000000000000000000000000000000000000000000000000000600052601260045260246000fd5b6000612ed082611ef8565b9150612edb83611ef8565b925082612eeb57612eea612e96565b5b828204905092915050565b6000612f0182611ef8565b9150612f0c83611ef8565b925082612f1c57612f1b612e96565b5b828206905092915050565b7f4e487b7100000000000000000000000000000000000000000000000000000000600052603260045260246000fd5b7f4552433732313a206d696e7420746f20746865207a65726f2061646472657373600082015250565b6000612f8c602083611e48565b9150612f9782612f56565b602082019050919050565b60006020820190508181036000830152612fbb81612f7f565b9050919050565b7f4552433732313a20746f6b656e20616c7265616479206d696e74656400000000600082015250565b6000612ff8601c83611e48565b915061300382612fc2565b602082019050919050565b6000602082019050818103600083015261302781612feb565b905091905056fea26469706673582212201db90a69aa7de33b226d014491b6cd9386be09b9d7d2ac251e975d65dd1c2d3064736f6c63430008090033",
  "linkReferences": {},
  "deployedLinkReferences": {}
}